{
  "_format": "hh-sol-artifact-1",
  "contractName": "Auction",
  "sourceName": "contracts/Auction.sol",
  "abi": [
    {
      "inputs": [],
      "stateMutability": "nonpayable",
      "type": "constructor"
    },
    {
      "inputs": [],
      "name": "AuctionAlreadyEnded",
      "type": "error"
    },
    {
      "inputs": [],
      "name": "AuctionEndAlreadyCalled",
      "type": "error"
    },
    {
      "inputs": [],
      "name": "AuctionNotYetEnded",
      "type": "error"
    },
    {
      "inputs": [
        {
          "internalType": "uint256",
          "name": "highestBid",
          "type": "uint256"
        }
      ],
      "name": "BidNotHighEnough",
      "type": "error"
    },
    {
      "anonymous": false,
      "inputs": [
        {
          "indexed": false,
          "internalType": "address",
          "name": "winner",
          "type": "address"
        },
        {
          "indexed": false,
          "internalType": "uint256",
          "name": "amount",
          "type": "uint256"
        }
      ],
      "name": "AuctionEnded",
      "type": "event"
    },
    {
      "anonymous": false,
      "inputs": [
        {
          "indexed": false,
          "internalType": "address",
          "name": "bidder",
          "type": "address"
        },
        {
          "indexed": false,
          "internalType": "uint256",
          "name": "amount",
          "type": "uint256"
        }
      ],
      "name": "HighestBidIncreased",
      "type": "event"
    },
    {
      "inputs": [
        {
          "internalType": "uint256",
          "name": "_item",
          "type": "uint256"
        },
        {
          "internalType": "uint256",
          "name": "_biddingTime",
          "type": "uint256"
        },
        {
          "internalType": "address payable",
          "name": "_beneficiaryAddress",
          "type": "address"
        }
      ],
      "name": "auction",
      "outputs": [
        {
          "internalType": "bool",
          "name": "success",
          "type": "bool"
        }
      ],
      "stateMutability": "nonpayable",
      "type": "function"
    },
    {
      "inputs": [],
      "name": "auctionEnd",
      "outputs": [],
      "stateMutability": "nonpayable",
      "type": "function"
    },
    {
      "inputs": [],
      "name": "auctionEndTime",
      "outputs": [
        {
          "internalType": "uint256",
          "name": "",
          "type": "uint256"
        }
      ],
      "stateMutability": "view",
      "type": "function"
    },
    {
      "inputs": [],
      "name": "beneficiary",
      "outputs": [
        {
          "internalType": "address payable",
          "name": "",
          "type": "address"
        }
      ],
      "stateMutability": "view",
      "type": "function"
    },
    {
      "inputs": [],
      "name": "bid",
      "outputs": [],
      "stateMutability": "payable",
      "type": "function"
    },
    {
      "inputs": [],
      "name": "bidItem",
      "outputs": [
        {
          "internalType": "uint256",
          "name": "",
          "type": "uint256"
        }
      ],
      "stateMutability": "view",
      "type": "function"
    },
    {
      "inputs": [],
      "name": "highestBid",
      "outputs": [
        {
          "internalType": "uint256",
          "name": "",
          "type": "uint256"
        }
      ],
      "stateMutability": "view",
      "type": "function"
    },
    {
      "inputs": [],
      "name": "highestBidder",
      "outputs": [
        {
          "internalType": "address",
          "name": "",
          "type": "address"
        }
      ],
      "stateMutability": "view",
      "type": "function"
    },
    {
      "inputs": [],
      "name": "owner",
      "outputs": [
        {
          "internalType": "address",
          "name": "",
          "type": "address"
        }
      ],
      "stateMutability": "view",
      "type": "function"
    },
    {
      "inputs": [
        {
          "internalType": "address",
          "name": "",
          "type": "address"
        }
      ],
      "name": "pendingReturns",
      "outputs": [
        {
          "internalType": "uint256",
          "name": "",
          "type": "uint256"
        }
      ],
      "stateMutability": "view",
      "type": "function"
    },
    {
      "inputs": [],
      "name": "withdraw",
      "outputs": [
        {
          "internalType": "bool",
          "name": "",
          "type": "bool"
        }
      ],
      "stateMutability": "nonpayable",
      "type": "function"
    }
  ],
  "bytecode": "0x608060405234801561001057600080fd5b5033600560006101000a81548173ffffffffffffffffffffffffffffffffffffffff021916908373ffffffffffffffffffffffffffffffffffffffff160217905550610b99806100616000396000f3fe60806040526004361061009c5760003560e01c80634b449cba116100645780634b449cba146101555780638b5852ce146101805780638da5cb5b146101ab57806391f90157146101d6578063a42fb50914610201578063d57bde791461023e5761009c565b80631998aeef146100a157806326b387bb146100ab5780632a24f46c146100e857806338af3eed146100ff5780633ccfd60b1461012a575b600080fd5b6100a9610269565b005b3480156100b757600080fd5b506100d260048036038101906100cd9190610853565b6103f5565b6040516100df91906109c4565b60405180910390f35b3480156100f457600080fd5b506100fd61040d565b005b34801561010b57600080fd5b50610114610573565b6040516101219190610945565b60405180910390f35b34801561013657600080fd5b5061013f610597565b60405161014c9190610989565b60405180910390f35b34801561016157600080fd5b5061016a6106bb565b60405161017791906109c4565b60405180910390f35b34801561018c57600080fd5b506101956106c1565b6040516101a291906109c4565b60405180910390f35b3480156101b757600080fd5b506101c06106c7565b6040516101cd919061092a565b60405180910390f35b3480156101e257600080fd5b506101eb6106ed565b6040516101f8919061092a565b60405180910390f35b34801561020d57600080fd5b506102286004803603810190610223919061087c565b610713565b6040516102359190610989565b60405180910390f35b34801561024a57600080fd5b5061025361080e565b60405161026091906109c4565b60405180910390f35b6001544211156102a5576040517fd02e774d00000000000000000000000000000000000000000000000000000000815260040160405180910390fd5b60035434116102ed576003546040517f4e12c1bb0000000000000000000000000000000000000000000000000000000081526004016102e491906109c4565b60405180910390fd5b6000600354146103725760035460076000600260009054906101000a900473ffffffffffffffffffffffffffffffffffffffff1673ffffffffffffffffffffffffffffffffffffffff1673ffffffffffffffffffffffffffffffffffffffff168152602001908152602001600020600082825461036a91906109f0565b925050819055505b33600260006101000a81548173ffffffffffffffffffffffffffffffffffffffff021916908373ffffffffffffffffffffffffffffffffffffffff160217905550346003819055507ff4757a49b326036464bec6fe419a4ae38c8a02ce3e68bf0809674f6aab8ad30033346040516103eb929190610960565b60405180910390a1565b60076020528060005260406000206000915090505481565b600154421015610449576040517f44cee29000000000000000000000000000000000000000000000000000000000815260040160405180910390fd5b600860009054906101000a900460ff1615610490576040517fd02e774d00000000000000000000000000000000000000000000000000000000815260040160405180910390fd5b6001600860006101000a81548160ff0219169083151502179055507fdaec4582d5d9595688c8c98545fdd1c696d41c6aeaeb636737e84ed2f5c00eda600260009054906101000a900473ffffffffffffffffffffffffffffffffffffffff16600354604051610500929190610960565b60405180910390a160008054906101000a900473ffffffffffffffffffffffffffffffffffffffff1673ffffffffffffffffffffffffffffffffffffffff166108fc6003549081150290604051600060405180830381858888f19350505050158015610570573d6000803e3d6000fd5b50565b60008054906101000a900473ffffffffffffffffffffffffffffffffffffffff1681565b600080600760003373ffffffffffffffffffffffffffffffffffffffff1673ffffffffffffffffffffffffffffffffffffffff16815260200190815260200160002054905060008111156106b2576000600760003373ffffffffffffffffffffffffffffffffffffffff1673ffffffffffffffffffffffffffffffffffffffff168152602001908152602001600020819055503373ffffffffffffffffffffffffffffffffffffffff166108fc829081150290604051600060405180830381858888f193505050506106b15780600760003373ffffffffffffffffffffffffffffffffffffffff1673ffffffffffffffffffffffffffffffffffffffff1681526020019081526020016000208190555060009150506106b8565b5b60019150505b90565b60015481565b60065481565b600560009054906101000a900473ffffffffffffffffffffffffffffffffffffffff1681565b600260009054906101000a900473ffffffffffffffffffffffffffffffffffffffff1681565b60003373ffffffffffffffffffffffffffffffffffffffff16600560009054906101000a900473ffffffffffffffffffffffffffffffffffffffff1673ffffffffffffffffffffffffffffffffffffffff16146107a5576040517f08c379a000000000000000000000000000000000000000000000000000000000815260040161079c906109a4565b60405180910390fd5b8360068190555082600481905550816000806101000a81548173ffffffffffffffffffffffffffffffffffffffff021916908373ffffffffffffffffffffffffffffffffffffffff1602179055506004544261080191906109f0565b6001819055509392505050565b60035481565b60008135905061082381610b1e565b92915050565b60008135905061083881610b35565b92915050565b60008135905061084d81610b4c565b92915050565b60006020828403121561086557600080fd5b600061087384828501610814565b91505092915050565b60008060006060848603121561089157600080fd5b600061089f8682870161083e565b93505060206108b08682870161083e565b92505060406108c186828701610829565b9150509250925092565b6108d481610a58565b82525050565b6108e381610a46565b82525050565b6108f281610a6a565b82525050565b6000610905602e836109df565b915061091082610acf565b604082019050919050565b61092481610a96565b82525050565b600060208201905061093f60008301846108da565b92915050565b600060208201905061095a60008301846108cb565b92915050565b600060408201905061097560008301856108da565b610982602083018461091b565b9392505050565b600060208201905061099e60008301846108e9565b92915050565b600060208201905081810360008301526109bd816108f8565b9050919050565b60006020820190506109d9600083018461091b565b92915050565b600082825260208201905092915050565b60006109fb82610a96565b9150610a0683610a96565b9250827fffffffffffffffffffffffffffffffffffffffffffffffffffffffffffffffff03821115610a3b57610a3a610aa0565b5b828201905092915050565b6000610a5182610a76565b9050919050565b6000610a6382610a76565b9050919050565b60008115159050919050565b600073ffffffffffffffffffffffffffffffffffffffff82169050919050565b6000819050919050565b7f4e487b7100000000000000000000000000000000000000000000000000000000600052601160045260246000fd5b7f4f6e6c792074686520436f6e7472616374204f776e65722063616e2063616c6c60008201527f20746869732066756e6374696f6e000000000000000000000000000000000000602082015250565b610b2781610a46565b8114610b3257600080fd5b50565b610b3e81610a58565b8114610b4957600080fd5b50565b610b5581610a96565b8114610b6057600080fd5b5056fea2646970667358221220bd25179e46cd390a8c7ce3761273f823e60302a3bb919adb40560d39e6dfbc6c64736f6c63430008040033",
  "linkReferences": {},
  "deployedLinkReferences": {}
}