{
  "_format": "hh-sol-artifact-1",
  "contractName": "Auction",
  "sourceName": "contracts/Auction.sol",
  "abi": [
    {
      "inputs": [
        {
          "internalType": "uint256",
          "name": "biddingTime",
          "type": "uint256"
        },
        {
          "internalType": "address payable",
          "name": "beneficiaryAddress",
          "type": "address"
        }
      ],
      "stateMutability": "nonpayable",
      "type": "constructor"
    },
    {
      "inputs": [],
      "name": "AuctionAlreadyEnded",
      "type": "error"
    },
    {
      "inputs": [],
      "name": "AuctionEndAlreadyCalled",
      "type": "error"
    },
    {
      "inputs": [],
      "name": "AuctionNotYetEnded",
      "type": "error"
    },
    {
      "inputs": [
        {
          "internalType": "uint256",
          "name": "highestBid",
          "type": "uint256"
        }
      ],
      "name": "BidNotHighEnough",
      "type": "error"
    },
    {
      "anonymous": false,
      "inputs": [
        {
          "indexed": false,
          "internalType": "address",
          "name": "winner",
          "type": "address"
        },
        {
          "indexed": false,
          "internalType": "uint256",
          "name": "amount",
          "type": "uint256"
        }
      ],
      "name": "AuctionEnded",
      "type": "event"
    },
    {
      "anonymous": false,
      "inputs": [
        {
          "indexed": false,
          "internalType": "address",
          "name": "bidder",
          "type": "address"
        },
        {
          "indexed": false,
          "internalType": "uint256",
          "name": "amount",
          "type": "uint256"
        }
      ],
      "name": "HighestBidIncreased",
      "type": "event"
    },
    {
      "inputs": [],
      "name": "auctionEnd",
      "outputs": [],
      "stateMutability": "nonpayable",
      "type": "function"
    },
    {
      "inputs": [],
      "name": "auctionEndTime",
      "outputs": [
        {
          "internalType": "uint256",
          "name": "",
          "type": "uint256"
        }
      ],
      "stateMutability": "view",
      "type": "function"
    },
    {
      "inputs": [],
      "name": "beneficiary",
      "outputs": [
        {
          "internalType": "address payable",
          "name": "",
          "type": "address"
        }
      ],
      "stateMutability": "view",
      "type": "function"
    },
    {
      "inputs": [],
      "name": "bid",
      "outputs": [],
      "stateMutability": "payable",
      "type": "function"
    },
    {
      "inputs": [],
      "name": "highestBid",
      "outputs": [
        {
          "internalType": "uint256",
          "name": "",
          "type": "uint256"
        }
      ],
      "stateMutability": "view",
      "type": "function"
    },
    {
      "inputs": [],
      "name": "highestBidder",
      "outputs": [
        {
          "internalType": "address",
          "name": "",
          "type": "address"
        }
      ],
      "stateMutability": "view",
      "type": "function"
    },
    {
      "inputs": [
        {
          "internalType": "address",
          "name": "",
          "type": "address"
        }
      ],
      "name": "pendingReturns",
      "outputs": [
        {
          "internalType": "uint256",
          "name": "",
          "type": "uint256"
        }
      ],
      "stateMutability": "view",
      "type": "function"
    },
    {
      "inputs": [],
      "name": "withdraw",
      "outputs": [
        {
          "internalType": "bool",
          "name": "",
          "type": "bool"
        }
      ],
      "stateMutability": "nonpayable",
      "type": "function"
    }
  ],
  "bytecode": "0x60806040523480156200001157600080fd5b5060405162000a8438038062000a848339818101604052810190620000379190620000c1565b806000806101000a81548173ffffffffffffffffffffffffffffffffffffffff021916908373ffffffffffffffffffffffffffffffffffffffff160217905550814262000085919062000102565b600181905550505062000200565b600081519050620000a481620001cc565b92915050565b600081519050620000bb81620001e6565b92915050565b60008060408385031215620000d557600080fd5b6000620000e585828601620000aa565b9250506020620000f88582860162000093565b9150509250929050565b60006200010f8262000193565b91506200011c8362000193565b9250827fffffffffffffffffffffffffffffffffffffffffffffffffffffffffffffffff038211156200015457620001536200019d565b5b828201905092915050565b60006200016c8262000173565b9050919050565b600073ffffffffffffffffffffffffffffffffffffffff82169050919050565b6000819050919050565b7f4e487b7100000000000000000000000000000000000000000000000000000000600052601160045260246000fd5b620001d7816200015f565b8114620001e357600080fd5b50565b620001f18162000193565b8114620001fd57600080fd5b50565b61087480620002106000396000f3fe60806040526004361061007b5760003560e01c80633ccfd60b1161004e5780633ccfd60b146101095780634b449cba1461013457806391f901571461015f578063d57bde791461018a5761007b565b80631998aeef1461008057806326b387bb1461008a5780632a24f46c146100c757806338af3eed146100de575b600080fd5b6100886101b5565b005b34801561009657600080fd5b506100b160048036038101906100ac919061064e565b610341565b6040516100be919061072d565b60405180910390f35b3480156100d357600080fd5b506100dc610359565b005b3480156100ea57600080fd5b506100f36104bf565b60405161010091906106ce565b60405180910390f35b34801561011557600080fd5b5061011e6104e3565b60405161012b9190610712565b60405180910390f35b34801561014057600080fd5b50610149610607565b604051610156919061072d565b60405180910390f35b34801561016b57600080fd5b5061017461060d565b60405161018191906106b3565b60405180910390f35b34801561019657600080fd5b5061019f610633565b6040516101ac919061072d565b60405180910390f35b6001544211156101f1576040517fd02e774d00000000000000000000000000000000000000000000000000000000815260040160405180910390fd5b6003543411610239576003546040517f4e12c1bb000000000000000000000000000000000000000000000000000000008152600401610230919061072d565b60405180910390fd5b6000600354146102be5760035460046000600260009054906101000a900473ffffffffffffffffffffffffffffffffffffffff1673ffffffffffffffffffffffffffffffffffffffff1673ffffffffffffffffffffffffffffffffffffffff16815260200190815260200160002060008282546102b69190610748565b925050819055505b33600260006101000a81548173ffffffffffffffffffffffffffffffffffffffff021916908373ffffffffffffffffffffffffffffffffffffffff160217905550346003819055507ff4757a49b326036464bec6fe419a4ae38c8a02ce3e68bf0809674f6aab8ad30033346040516103379291906106e9565b60405180910390a1565b60046020528060005260406000206000915090505481565b600154421015610395576040517f44cee29000000000000000000000000000000000000000000000000000000000815260040160405180910390fd5b600560009054906101000a900460ff16156103dc576040517fd02e774d00000000000000000000000000000000000000000000000000000000815260040160405180910390fd5b6001600560006101000a81548160ff0219169083151502179055507fdaec4582d5d9595688c8c98545fdd1c696d41c6aeaeb636737e84ed2f5c00eda600260009054906101000a900473ffffffffffffffffffffffffffffffffffffffff1660035460405161044c9291906106e9565b60405180910390a160008054906101000a900473ffffffffffffffffffffffffffffffffffffffff1673ffffffffffffffffffffffffffffffffffffffff166108fc6003549081150290604051600060405180830381858888f193505050501580156104bc573d6000803e3d6000fd5b50565b60008054906101000a900473ffffffffffffffffffffffffffffffffffffffff1681565b600080600460003373ffffffffffffffffffffffffffffffffffffffff1673ffffffffffffffffffffffffffffffffffffffff16815260200190815260200160002054905060008111156105fe576000600460003373ffffffffffffffffffffffffffffffffffffffff1673ffffffffffffffffffffffffffffffffffffffff168152602001908152602001600020819055503373ffffffffffffffffffffffffffffffffffffffff166108fc829081150290604051600060405180830381858888f193505050506105fd5780600460003373ffffffffffffffffffffffffffffffffffffffff1673ffffffffffffffffffffffffffffffffffffffff168152602001908152602001600020819055506000915050610604565b5b60019150505b90565b60015481565b600260009054906101000a900473ffffffffffffffffffffffffffffffffffffffff1681565b60035481565b60008135905061064881610827565b92915050565b60006020828403121561066057600080fd5b600061066e84828501610639565b91505092915050565b610680816107b0565b82525050565b61068f8161079e565b82525050565b61069e816107c2565b82525050565b6106ad816107ee565b82525050565b60006020820190506106c86000830184610686565b92915050565b60006020820190506106e36000830184610677565b92915050565b60006040820190506106fe6000830185610686565b61070b60208301846106a4565b9392505050565b60006020820190506107276000830184610695565b92915050565b600060208201905061074260008301846106a4565b92915050565b6000610753826107ee565b915061075e836107ee565b9250827fffffffffffffffffffffffffffffffffffffffffffffffffffffffffffffffff03821115610793576107926107f8565b5b828201905092915050565b60006107a9826107ce565b9050919050565b60006107bb826107ce565b9050919050565b60008115159050919050565b600073ffffffffffffffffffffffffffffffffffffffff82169050919050565b6000819050919050565b7f4e487b7100000000000000000000000000000000000000000000000000000000600052601160045260246000fd5b6108308161079e565b811461083b57600080fd5b5056fea2646970667358221220f3894a60f67ee176dca1bfc3e71f8405f13877f555b09a5eb74b592fe647954064736f6c63430008040033",
  "linkReferences": {},
  "deployedLinkReferences": {}
}